:100000000C9434000C9451000C9451000C94510049
:100010000C9451000C9451000C9451000C9451001C
:100020000C9451000C9451000C9451000C9451000C
:100030000C9451000C9451000C9451000C945100FC
:100040000C9453000C9451000C9451000C945100EA
:100050000C9451000C9451000C9451000C945100DC
:100060000C9451000C94510011241FBECFEFD8E026
:10007000DEBFCDBF11E0A0E0B1E0EAEBF9E002C0E5
:1000800005900D92A031B107D9F711E0A0E1B1E0E0
:1000900001C01D92A832B107E1F70E94B7000C948D
:1000A000DB040C9400001F920F920FB60F921124E4
:1000B0008F939F93AF93BF93EF93FF93DF93CF9370
:1000C000CDB7DEB7E6E4F0E0108280912601909192
:1000D00027010196909327018093260180912601A4
:1000E0009091270181309105B9F410922701109267
:1000F00026018091140190911501A0911601B091F3
:1001000017010196A11DB11D809314019093150153
:10011000A0931601B09317018091140190911501DD
:10012000A0911601B09117018A309105A105B10582
:1001300089F4109214011092150110921601109278
:10014000170180911801909119010196909319015E
:1001500080931801CF91DF91FF91EF91BF91AF9103
:100160009F918F910F900FBE0F901F901895DF9366
:10017000CF9300D000D00F92CDB7DEB7E4E4F0E02B
:100180001082E5E4F0E082E08083AEE6B0E0EEE6E7
:10019000F0E0808181608C93E5E3F0E02081789449
:1001A000EAE2F0E08FEF8083E4E2F0E08FEF80831B
:1001B000E7E2F0E01082A5E2B0E0E5E2F0E0808165
:1001C00084608C93A8E2B0E0E8E2F0E08081816096
:1001D0008C93A8E2B0E0E8E2F0E0808182608C934A
:1001E000A8E2B0E0E8E2F0E0808184608C93A8E2CD
:1001F000B0E0E8E2F0E0808188608C93A8E2B0E0B3
:10020000E8E2F0E0808180618C93A8E2B0E0E8E26F
:10021000F0E0808180628C938FE00E943C040E9419
:100220005203E6E2F0E08081882F90E080729070C7
:100230009C838B832B813C8189819A812817390784
:1002400009F455C08091100190911101A091120103
:10025000B09113010097A105B10509F048C0809144
:10026000180190911901AA2797FDA095BA2F8093A4
:10027000220190932301A0932401B09325011092B1
:100280001901109218018091100190911101A09113
:100290001201B09113010196A11DB11D80931001AF
:1002A00090931101A0931201B09313018B819C8153
:1002B0009A83898380E061E00E941F0380E091E0DF
:1002C0000E94A70380E061E00E941F038091220149
:1002D00090912301A0912401B09125010E94F10386
:1002E000A5E2B0E0E5E2F0E080818F7B8C932B818A
:1002F0003C8189819A812817390709F470C080915F
:10030000100190911101A0911201B091130181305F
:100310009105A105B10509F062C080911801909185
:100320001901AA2797FDA095BA2F80931E019093DB
:100330001F01A0932001B093210110921901109286
:10034000180180911A0190911B01A0911C01B0919C
:100350001D010196A11DB11D80931A0190931B01EF
:10036000A0931C01B0931D01809110019091110187
:10037000A0911201B09113010197A109B1098093D5
:10038000100190931101A0931201B09313018B817E
:100390009C819A83898380E060E00E941F0387E04C
:1003A00091E00E94A70380E060E00E941F0380911B
:1003B0001E0190911F01A0912001B09121010E9486
:1003C000F1038AE062E00E941F0380911A0190917C
:1003D0001B01A0911C01B0911D010E94F1038091AD
:1003E000220190912301A0912401B091250181392E
:1003F00021E0920720E0A20720E0B2070CF411CF21
:100400008AE062E00E941F038CE091E00E94A70353
:1004100010921A0110921B0110921C0110921D01E2
:10042000A5E2B0E0E5E2F0E0808180648C93F9CE53
:10043000DF93CF93CDB7DEB7A5E2B0E0E5E2F0E021
:10044000808182608C9300C0A5E2B0E0E5E2F0E03C
:1004500080818D7F8C93CF91DF910895DF93CF932F
:1004600000D00F92CDB7DEB78A836B838B81882350
:1004700041F0A5E2B0E0E5E2F0E0808181608C939C
:1004800007C0A5E2B0E0E5E2F0E080818E7F8C93CA
:10049000A5E2B0E0E5E2F0E08081877F8C93AAE2FC
:1004A000B0E0EAE2F0E080818F608C93EBE2F0E074
:1004B0008081807F8983EBE2F0E08A81982F92959A
:1004C0009F708981892B80830E941802EBE2F0E003
:1004D0008A81982F9F708981892B80830E941802BE
:1004E000EBE2F0E089818F6080830F900F900F9096
:1004F000CF91DF910895DF93CF9300D0CDB7DEB7D2
:100500008A838A81882341F0A5E2B0E0E5E2F0E049
:10051000808181608C9307C0A5E2B0E0E5E2F0E065
:1005200080818E7F8C93A5E2B0E0E5E2F0E08081EF
:1005300088608C93AAE2B0E0EAE2F0E08081807FFC
:100540008C93A5E2B0E0E5E2F0E0808182608C93DC
:1005500000C0E9E2F0E080818295807F8983A5E296
:10056000B0E0E5E2F0E080818D7F8C9300C0A5E2F1
:10057000B0E0E5E2F0E0808182608C9300C0E9E2C7
:10058000F0E08081982F9F708981892B8983A5E273
:10059000B0E0E5E2F0E080818D7F8C9389810F905F
:1005A0000F90CF91DF910895DF93CF93CDB7DEB752
:1005B00080E00E947B028823DCF388E090E00E94C8
:1005C000E70280E00E947B02CF91DF910895DF93E4
:1005D000CF9300D0CDB7DEB79A83898389819A8182
:1005E000009711F400C006C089819A810197F1F744
:1005F0009A8389830F900F90CF91DF910895DF93B5
:10060000CF930F92CDB7DEB789830E94D402898140
:1006100060E00E942E020F90CF91DF910895DF934A
:10062000CF930F92CDB7DEB789830E94D402898120
:1006300061E00E942E020F90CF91DF910895DF9329
:10064000CF9300D0CDB7DEB789836A838A818823B0
:1006500029F4898180580E94FF0214C08A81813068
:1006600029F4898180540E94FF020CC08A81823063
:1006700029F489818C560E94FF0204C089818C5222
:100680000E94FF020F900F90CF91DF910895DF93AA
:10069000CF93CDB7DEB70E94D402882F90E0CF91E0
:1006A000DF910895DF93CF93CDB7DEB781E00E944D
:1006B000FF02CF91DF910895DF93CF93CDB7DEB7DF
:1006C00082E00E94FF02CF91DF910895DF93CF93E4
:1006D00000D0CDB7DEB78A830E94D40289838A8195
:1006E0008A3021F489810E947F0304C08A8161E0FD
:1006F0000E942E020F900F90CF91DF910895DF930B
:10070000CF9300D0CDB7DEB789838981843118F4C7
:1007100080E48A8313C08981803430F089818435F4
:1007200018F484E18A830AC08981843130F0898198
:10073000803418F484E58A8301C01A828A81805843
:100740000E94FF020F900F90CF91DF910895DF93E9
:10075000CF9300D000D0CDB7DEB79A83898303C092
:100760008B810E946603E981FA8180818B838B8172
:100770008C838C81882311F081E08C838C8129818A
:100780003A812F5F3F4F3A832983882349F70F909F
:100790000F900F900F90CF91DF910895DF93CF933B
:1007A000CDB7DEB729970FB6F894DEBF0FBECDBF29
:1007B00089878985882F90E09E012F5F3F4FB9017F
:1007C00048E050E00E94A104CE0101960E94A703D8
:1007D00029960FB6F894DEBF0FBECDBFCF91DF9143
:1007E0000895DF93CF93CDB7DEB766970FB6F89431
:1007F000DEBF0FBECDBF9E8B8D8B8D899E899E01E6
:100800002F5F3F4FB9014AE050E00E94A104CE01A2
:1008100001960E94A70366960FB6F894DEBF0FBE3E
:10082000CDBFCF91DF910895DF93CF9300D000D05B
:1008300000D0CDB7DEB79D838C8303C08E810E942C
:1008400066038C819D819B838A838C819D81019627
:100850009D838C83EA81FB818491898389818E8346
:100860008E81882359F726960FB6F894DEBF0FBE07
:10087000CDBFCF91DF910895DF93CF930F92CDB786
:10088000DEB78983AAE2B0E0EAE2F0E080818F601F
:100890008C93A4E2B0E0E4E2F0E0808181608C938C
:1008A000A4E2B0E0E4E2F0E0808188608C93A4E20E
:1008B000B0E0E4E2F0E0808182608C9380E09AEF27
:1008C0000E94E702ABE2B0E0EBE2F0E08081826000
:1008D0008C93ABE2B0E0EBE2F0E0808181608C933E
:1008E0000E94180280E091E00E94E7020E94180234
:1008F00080E091E00E94E7020E94180280E091E00F
:100900000E94E702ABE2B0E0EBE2F0E080818E7F94
:100910008C930E94180280E091E00E94E70288E236
:100920000E94FF0288E00E94FF020E94520386E0BC
:100930000E94FF0289810E94FF020F90CF91DF91F8
:100940000895FB019F01423074F0453264F4642F36
:1009500077270E94C704805D8A330CF0895D8193FC
:10096000CB010097A1F71082C9010C94B704DC01F8
:10097000FC01672F71917723E1F7329704C07C91D6
:100980006D9370836291AE17BF07C8F30895AA1BD9
:10099000BB1B51E107C0AA1FBB1FA617B70710F06A
:1009A000A61BB70B881F991F5A95A9F7809590959C
:0A09B000BC01CD010895F894FFCFBB
:1009BA0020202020202000202020200020200000AD
:00000001FF
